:100000000A128A110C280134FE00030EF0000A08BF
:10001000F1000A128A15022D0A128A110F280A12FB
:100020008A11FE270A128A11C7000A128A11FF27B5
:100030000A128A11C8000A128A1103200A128A11B0
:10004000FB0083133430840047300A128A151E24C3
:100050000A128A1183010A128A11192C83120313BE
:100060004608AC005130F6008030F7008030F800D0
:100070000A128A11CF270A128A11DC30F60080306A
:10008000F700C030F8000A128A11CF270A128A112D
:10009000831203133E08031D4E284F2860283F0893
:1000A0000319532854286028E830F6008030F70000
:1000B000C630F8000A128A11CF270A128A11C22804
:1000C000C630A6006430F2000030F3003D08A900FD
:1000D000AA012908F4002A08F5000A128A153F2609
:1000E0000A128A117208303E0A128A1548240A122E
:1000F0008A11C73083120313A6000A30A000003013
:10010000A1000A30F2000030F3003D08A900AA0166
:100110002908F4002A08F5000A128A153F260A1257
:100120008A11730883120313A3007208A2000A1233
:100130008A15E6250A128A11831203132008303E1D
:100140000A128A1548240A128A11C830831203132E
:10015000A6000A30A0000030A1003D08A900AA01B5
:100160002908A2002A08A3000A128A15E6250A1205
:100170008A11831203132008303E0A128A1548247C
:100180000A128A11C93083120313A600DF300A1243
:100190008A1548240A128A11CA3083120313A60052
:1001A00043300A128A1548240A128A11D630F60002
:1001B0008030F7009030F8000A128A11CF270A1217
:1001C0008A11831203133E03031DE728E828F92848
:1001D0003F080319EC28ED28F928E930F6008030B3
:1001E000F7009630F8000A128A11CF270A128A11F6
:1001F0002F299630A6000A30F2000030F3004408A0
:10020000A900AA012908F4002A08F5000A128A1593
:100210003F260A128A117208303E0A128A154824B3
:100220000A128A11973083120313A6000A30A00025
:100230000030A1004408A900AA012908A2002A0848
:10024000A3000A128A15E6250A128A1183120313E3
:100250002008303E0A128A1548240A128A11983062
:1002600083120313A6003A300A128A1548240A1290
:100270008A110230831203133E06031D40294129CF
:1002800052293F080319452946295229E930F60029
:100290008030F7009930F8000A128A11CF270A122D
:1002A0008A1188299930A6000A30F2000030F30044
:1002B0004308A900AA012908F4002A08F5000A1237
:1002C0008A153F260A128A117208303E0A128A15D0
:1002D00048240A128A119A3083120313A6000A30A6
:1002E000A0000030A1004308A900AA012908A2002B
:1002F0002A08A3000A128A15E6250A128A11831217
:1003000003132008303E0A128A1548240A128A1163
:10031000E230F6008030F700D030F8000A128A117F
:10032000CF270A128A11A730F6008030F700D830A4
:10033000F8000A128A11CF270A128A1183120313B6
:100340002C0A0319A429A529492A0A302C020318CA
:10035000AA29AB29492A3E08031DAF29B029E5295E
:100360003C08031DB429B529BA292C08BD00013069
:10037000BC00492A3C03031DBE29BF29CE290A30EF
:10038000A6003D080A128A155B240A128A118312FC
:1003900003132C07BD000230BC00492A0A30A60016
:1003A0003D080A128A155B240A128A11831203136C
:1003B0002C07BD00FB303D02031CDF29E029E229A8
:1003C000FA30BD000330BC00492A3E03031DE92971
:1003D000EA29132A0A30A6004408A900AA0129081C
:1003E000A2002A08A3000A30A0000030A1000A12CF
:1003F0008A15E6250A128A118312031320080A12AD
:100400008A155B240A128A11831203132C07C40075
:100410000130BB0702303B02031C0F2A102A492A75
:100420000230BB00492A02303E06031D182A192A51
:10043000492A0A30A6004308A900AA012908A200F7
:100440002A08A3000A30A0000030A1000A128A1571
:10045000E6250A128A118312031320080A128A154C
:100460005B240A128A11831203132C07AB003C3061
:100470002B0203183C2A3D2A3F2A2B08C3000130D7
:10048000BA0702303A02031C462A472A492A023098
:10049000BA002A302C06031D4E2A4F2A612A3E0834
:1004A000031D532A542A572ABD01BC01612A3E0369
:1004B000031D5B2A5C2A5F2AC401BB01612AC301B8
:1004C000BA0123302C06031D662A672AAA2A3E0891
:1004D000031D6B2A6C2A6F2A0130BE00AA2A3E0334
:1004E000031D732A742A772A0230BE00AA2A3D0807
:1004F000A900AA012908C7002A08C8004408A900C1
:10050000AA012908F2002A08F3003C30F400003068
:10051000F5000A128A15B0240A128A1183120313F5
:1005200043087207B8000030031801307307B900A0
:100530000130C200C101BE01BC01BB01BA010630DD
:10054000C5000A128A1516240A128A11831203138F
:10055000071512150800831203134608AC0001307A
:10056000F6008030F7008030F8000A128A11CF2799
:100570000A128A11D630F6008030F700C030F80039
:100580000A128A11CF270A128A11831203133E0816
:10059000031DCB2ACC2ADD2A3F080319D02AD12AF1
:1005A000DD2AE930F6008030F700C630F8000A1284
:1005B0008A11CF270A128A11132BC630A6000A30DF
:1005C000F2000030F3004408A900AA012908F40051
:1005D0002A08F5000A128A153F260A128A117208A3
:1005E000303E0A128A1548240A128A11C730831233
:1005F0000313A6000A30A0000030A1004408A9009F
:10060000AA012908A2002A08A3000A128A15E625D1
:100610000A128A11831203132008303E0A128A1527
:1006200048240A128A11C83083120313A6003A30F4
:100630000A128A1548240A128A11831203133E03F0
:10064000031D232B242B352B3F080319282B292B83
:10065000352BE930F6008030F700C930F8000A1277
:100660008A11CF270A128A116B2BC930A6000A30D3
:10067000F2000030F3004308A900AA012908F400A1
:100680002A08F5000A128A153F260A128A117208F2
:10069000303E0A128A1548240A128A11CA3083127F
:1006A0000313A6000A30A0000030A1004308A900EF
:1006B000AA012908A2002A08A3000A128A15E62521
:1006C0000A128A11831203132008303E0A128A1577
:1006D00048240A128A119F30F6008030F700D0308B
:1006E000F8000A128A11CF270A128A11A730F600E1
:1006F0008030F700D830F8000A128A11CF270A128A
:100700008A11831203132C0A0319872B882BD82BE9
:100710000A302C0203188D2B8E2BD82B3E08031D7C
:10072000922B932BB22B0A30A6004408A900AA01F1
:100730002908A2002A08A3000A30A0000030A10066
:100740000A128A15E6250A128A1183120313200859
:100750000A128A155B240A128A11831203132C07CA
:10076000C400D82B0A30A6004308A900AA01290812
:10077000A2002A08A3000A30A0000030A1000A123B
:100780008A15E6250A128A118312031320080A1219
:100790008A155B240A128A11831203132C07AB00FB
:1007A0003C302B020318D52BD62BD82B2B08C3009B
:1007B0002A302C06031DDD2BDE2BE12BC401C301E7
:1007C000BE0123302C06031DE62BE72B182C3E0818
:1007D000031DEB2BEC2BEF2B0130BE00182C440833
:1007E000A900AA012908F2002A08F3003C30F4000D
:1007F0000030F5000A128A15B0240A128A118312F9
:10080000031343087207B800003003180130730760
:10081000B9000130C200C101BE010630C5000A1294
:100820008A1516240A128A1183120313121507154A
:1008300008000A128A1570240A128A110A128A15EF
:1008400016240A128A110A128A1505270A128A1119
:10085000273083120313B3000D30B2002530B100EE
:10086000B10B302CB20B302CB30B302C372C0A12BE
:100870008A1516240A128A11013083120313C50047
:1008800001300A128A158D240A128A118312031369
:10089000C6000A128A156A270A128A11332D0A1213
:1008A0008A15D5240A128A1183120313460A0319E2
:1008B0005A2C5B2C402C4603031D5F2C602C942C7F
:1008C0000A128A1516240A128A116C30F60080303A
:1008D000F700C230F8000A128A11CF270A128A11D3
:1008E0008430F6008030F7009230F8000A128A1146
:1008F000CF270A128A11333083120313B300BB309F
:10090000B200DF30B100B10B832CB20B832CB30BE0
:10091000832C0A128A1516240A128A1103308312B4
:100920000313C5001215402C02304606031D992CF6
:100930009A2CCD2C0A128A1516240A128A116C30B0
:10094000F6008030F700C230F8000A128A11CF2773
:100950000A128A117930F6008030F7009230F800E0
:100960000A128A11CF270A128A1133308312031315
:10097000B300BB30B200DF30B100B10BBD2CB20B05
:10098000BD2CB30BBD2C0A128A1516240A128A112B
:10099000043083120313C500922C03304606031D56
:1009A000D22CD32C062D0A128A1516240A128A116B
:1009B0006C30F6008030F700C230F8000A128A115D
:1009C000CF270A128A112330F6008030F7009130C9
:1009D000F8000A128A11CF270A128A1133308312C3
:1009E0000313B300BB30B200DF30B100B10BF62C03
:1009F000B20BF62CB30BF62C0A128A1516240A1227
:100A00008A11053083120313C500922C0430460668
:100A1000031D0B2D0C2D402C0A128A1516240A12C8
:100A20008A11013083120313C400C3013C30B800A3
:100A30000030B9000130C200C10112150630C500F6
:100A4000402C0A128A11AB220A128A11402C0A1277
:100A50008A112E200A128A11402C0A128A11FB26B2
:100A60000A128A11402C831203134508013A031914
:100A70004F2C023A0319212D073A0319212D013A6F
:100A80000319272D033A03192D2D3C2C0A128A1124
:100A90000C28831203138811081588140814643075
:100AA000F2000030F300FF30F2070318F30AFF30C2
:100AB000F307720A031D602D730A031D602D612D5B
:100AC000532D831203130618662D672D692D0130EF
:100AD000F42D86186C2D6D2D6F2D0230F42D061916
:100AE000722D732D752D0330F42D8815081188147F
:100AF00008146430F2000030F300FF30F2070318EE
:100B0000F30AFF30F307720A031D8A2D730A031DCF
:100B10008A2D8B2D7D2D831203130618902D912D78
:100B2000932D0430F42D8618962D972D992D053090
:100B3000F42D06199C2D9D2D9F2D0630F42D881522
:100B40000815881008146430F2000030F300FF30FC
:100B5000F2070318F30AFF30F307720A031DB42DDE
:100B6000730A031DB42DB52DA72D83120313061888
:100B7000BA2DBB2DBD2D0730F42D8618C02DC12DEB
:100B8000C32D0830F42D0619C62DC72DC92D0930E7
:100B9000F42D88150815881408106430F200003010
:100BA000F300FF30F2070318F30AFF30F307720A6D
:100BB000031DDE2D730A031DDE2DDF2DD12D8312C3
:100BC00003130618E42DE52DE72D2A30F42D8618A1
:100BD000EA2DEB2DED2D0030F42D0619F02DF12D21
:100BE000F32D2330F42DFF30080083160313880102
:100BF000091189100A128A15A2260A128A11080000
:100C0000FF1B0A2E83137F1883170008840A031919
:100C1000FF0A080006308A000408840A82070034AC
:100C20005334453454342034543449344D344534E9
:100C300020343C344D344D343A34533453343E3400
:100C40002034003445346E346A346F3479342034BF
:100C500059346F347534723420344D346534613412
:100C60006C34003443344F344E34563445344334BA
:100C7000543449344F344E3420344D344F3444349A
:100C80004534003450346F34773465347234693409
:100C90006E34673420344F346E342E342E342E3478
:100CA00000344D346934633472346F3477346134D2
:100CB0007634653420344F34763465346E34003401
:100CC0005334453454342034543445344D34503442
:100CD00020343C342A3443343E34003433342E340C
:100CE00043346F346E347634653463347434693429
:100CF0006F346E34003450346F347734653472346A
:100D000020343D34203439343034303457340034D6
:100D10004734523449344C344C3420344D344F34FD
:100D20004434453400344D344934433452344F3420
:100D300020344D344F3444344534003436342E346A
:100D4000533454344F3450342034003435342E343A
:100D50005034413455345334453400342A343A3411
:100D600043344C34453441345234003423343A341F
:100D700045344E34543445345234003434342E34F3
:100D800053345434413452345434003432342E34D5
:100D90004734723469346C346C34003431342E345A
:100DA0004D346934633472346F34003434342E3447
:100DB00053347434613472347434003454344934E8
:100DC0004D34453420343A340034543449344D34AD
:100DD00045343A340034543445344D3450343A3484
:100DE00000342A343A3443344C34523400342034FE
:100DF00020342034003483120313071504304606D0
:100E00000319032F052F0130062F0030AE000530E7
:100E1000460603190C2F0E2F01300F2F0030AF00A4
:100E2000063046060319152F172F0130182F0030F2
:100E3000B0000A30F2000030F3004408A600A70119
:100E40002608F4002708F5000A128A153F260A1220
:100E50008A117208303E83120313A8000A30A000E2
:100E60000030A1004408A600A7012608A200270818
:100E7000A3000A128A15E6250A128A1183120313A7
:100E80002008303EA9003A30AA000A30F2000030B3
:100E9000F3004308A600A7012608F4002708F50080
:100EA0000A128A153F260A128A117208303E8312EE
:100EB0000313AB000A30A0000030A1004308A600D5
:100EC000A7012608A2002708A3000A128A15E62512
:100ED0000A128A11831203132008303EAC00AD01C0
:100EE000CF30F6008030F7008030F8000A128A1107
:100EF000CF270A128A112830F6000030F700873019
:100F0000F8000A128A11CF270A128A11AF30F600B0
:100F10008030F700C030F8000A128A11CF270A1279
:100F20008A119730F6008030F7009030F8000A12EE
:100F30008A11CF270A128A118F30F6008030F7000D
:100F4000D030F8000A128A11CF270A128A118312B0
:100F500003132E080319AD2FAE2FB22F0130C2009C
:100F6000C10112152F080319B62FB72FBB2FC201CD
:100F70000130C100121130080319BF2FC02FCE2F2E
:100F8000C201C1011211B801B901C401C30101308C
:100F9000C5000A128A1516240A128A110800F201E5
:100FA00078080A128A1536250A128A11ED2FF201E5
:100FB000F20A7708FF00760884000A128A110026D8
:100FC0000A128A110A128A1536250A128A1101306C
:100FD000F6070318F70A0030F707770883120313A0
:100FE000FF00760884000A128A1100260A128A116C
:100FF000003A031DFC2FFD2FD72F0800B434003416
:10182C00F20101300A128A1536250A128A150800AF
:10183C0064008001840A04060319003404061F2C7A
:10184C00831603130608073886000808F039880049
:10185C0081138312031388150815881408140800C3
:10186C008312031312149214FA308316031392008A
:10187C00831203138C10831603138C14831203131B
:10188C0012110800FA00F2018312031326080A123F
:10189C008A1536250A128A15F201F20A7A080A12FA
:1018AC008A1536250A128A15080083120313A8001C
:1018BC00A701281C622C632C652C2608A707031093
:1018CC00A60D0310A80C2808031D6D2C6E2C5F2C84
:1018DC00270808000A128A11F5250A128A150A121D
:1018EC008A1526240A128A150A128A1536240A1217
:1018FC008A1583160313071187108312031307111C
:10190C0087108B170B17831603138C140800F40025
:10191C000A128A1149250A128A15F5007408031D4A
:10192C00982C992C9B2C7508AF2C750A03199F2C9D
:10193C00A02CA72C7B080319A42CA52CA72CFB01ED
:10194C00992C750A031DAB2CAC2CAE2C0130FB0072
:10195C00FF300800F601F701721CB52CB62CBC2C1C
:10196C007408F6070318F70A7508F7070130031017
:10197C00F40DF50DFF3E031DBD2C01300310F30CCF
:10198C00F20CFF3E031DC42C72087304031DCF2CF4
:10199C00D02CB22C7708F3007608F2000800BF3088
:1019AC00F6008030F7008030F8000A128A11CF2739
:1019BC000A128A15B730F6008030F700C030F800F4
:1019CC000A128A11CF270A128A155F30F60080306E
:1019DC00F7009030F8000A128A11CF270A128A15E4
:1019EC00C730F6008030F700D030F8000A128A11A8
:1019FC00CF270A128A150800831203138C1C072D9B
:101A0C00082D2F2D8C100130B6070318B70A0030A3
:101A1C00B707023037026E3003193602031C172D3C
:101A2C00182D1C2DB601B7010130BF060130B407CB
:101A3C000318B50A0030B50704303502DD30031940
:101A4C003402031C2A2D2B2D2F2DB401B50101308E
:101A5C00C00071088A00700E8300FE0E7E0E090015
:101A6C00F50072183A2D3E2D831203130915412DE2
:101A7C008312031309117508F03988008914A630F4
:101A8C00F300F30B472D0000831203138910750824
:101A9C000F39F30003300310F30DFF3E031D512DDE
:101AAC000310730D88008914A630F300F30B5C2D22
:101ABC0000008312031389101B30F4009E30F300D6
:101ACC00F30B662DF40B662D0000080072087304EE
:101ADC000319712D722D9F2D0130F6007E2D0130D2
:101AEC000310F20DF30DFF3E031D762D0130F607AA
:101AFC00F31F812D822D752D73087502031D882D02
:101B0C0072087402031C8B2D8C2D922D7208F4021A
:101B1C007308031CF503F50201300310F30CF20CEF
:101B2C00FF3E031D932D0130F602031D9E2D9F2DAC
:101B3C00822D7508F3007408F2000800F701F80113
:101B4C00720873040319AB2DAC2DE12D0130F60096
:101B5C00B82D01300310F20DF30DFF3E031DB02D17
:101B6C000130F607F31FBB2DBC2DAF2D0130031038
:101B7C00F70DF80DFF3E031DBD2D73087502031DF7
:101B8C00C92D72087402031CCC2DCD2DD42D7208D6
:101B9C00F4027308031CF503F502771401300310EB
:101BAC00F30CF20CFF3E031DD52D0130F602031D84
:101BBC00E02DE12DBC2D7808F3007708F200080029
:101BCC0083120313A501A31FEC2DED2DF42DA209F7
:101BDC00A309A20A0319A30A0130A500A11FF72D1E
:101BEC00F82DFD2DA009A109A00A0319A10A2008AE
:101BFC0021040319022E032E302E0130A4000F2EC7
:101C0C0001300310A00DA10DFF3E031D072E013066
:101C1C00A407A11F122E132E062E21082302031D2A
:101C2C00192E20082202031C1C2E1D2E232E2008E8
:101C3C00A2022108031CA303A30201300310A10C70
:101C4C00A00CFF3E031D242E0130A402031D2F2ED9
:101C5C00302E132E25080319342E352E3A2EA209B8
:101C6C00A309A20A0319A30A2308A1002208A000B1
:101C7C000800F701F31F432E442E4B2EF209F309F3
:101C8C00F20A0319F30A0130F700F51F4E2E4F2EFE
:101C9C00562EF409F509F40A0319F50A0130F70672
:101CAC00F801F9017208730403195D2E5E2E932E50
:101CBC000130F6006A2E01300310F20DF30DFF3ED9
:101CCC00031D622E0130F607F31F6D2E6E2E612E52
:101CDC0001300310F80DF90DFF3E031D6F2E730834
:101CEC007502031D7B2E72087402031C7E2E7F2E40
:101CFC00862E7208F4027308031CF503F50278149F
:101D0C0001300310F30CF20CFF3E031D872E013043
:101D1C00F602031D922E932E6E2E77080319972E22
:101D2C00982E9D2EF809F909F80A0319F90A790871
:101D3C00F3007808F2000800C330F700CD30F6004D
:101D4C00F60BA62EF70BA62EF20133300A128A15CB
:101D5C0036250A128A151B30F7009E30F600F60B5A
:101D6C00B52EF70BB52E0000F20133300A128A158E
:101D7C0036250A128A15A630F600F60BC32E000083
:101D8C00F20133300A128A1536250A128A15CE2E24
:101D9C00CF2E0000F20102300A128A1536250A12E3
:101DAC008A15A630F600F60BD92E0000F201283069
:101DBC000A128A1536250A128A15A630F600F60B79
:101DCC00E52E0000F20101300A128A1536250A129E
:101DDC008A150430F7003D30F600F60BF32EF70BA6
:101DEC00F32EF82EF2010C300A128A1536250A123F
:101DFC008A15A630F600F60B012F0000080083129E
:101E0C000313AB012B08803EA600FF300A128A1583
:101E1C0048240A128A150B3083120313A9002630AA
:101E2C00A8005D30A700A70B192FA80B192FA90B21
:101E3C00192F0A30831203132B06031D262F272F6D
:101E4C003D2F3330F6008030F700C030F8000A1216
:101E5C008A11CF270A128A154230F6008030F7001B
:101E6C009030F8000A128A11CF270A128A15013015
:101E7C0083120313AB0710302B02031C462F472F82
:101E8C00082FAA012A08D03EA600FF300A128A1594
:101E9C0048240A128A15063083120313A900133042
:101EAC00A800AD30A700A70B592FA80B592FA90BD1
:101EBC00592F013083120313AA0710302A02031C76
:101ECC00682F692F482F0800831203134208031D43
:101EDC00702F712F722FFF2F4008031D762F772F35
:101EEC00782FFF2FC0013808390403197E2F7F2F5C
:101EFC00A82F0130B8020030031CB903B9023C30E2
:101F0C00F2000030F3003908F5003808F4000A122A
:101F1C008A15A4250A128A15720883120313C400A9
:101F2C003C30F2000030F3003908F5003808F400BA
:101F3C000A128A156C250A128A1572088312031369
:101F4C00C300FF2F1211C201C1010A128A151624F7
:101F5C000A128A151330F6008030F700C130F800F1
:101F6C000A128A11CF270A128A1583120313BE0193
:101F7C004408031DC22FC32FF62F4308031DC72F80
:101F8C00C82FF62F0711F9018312031387140D3094
:101F9C0083120313A200AF30A100B530A000A00B38
:101FAC00D52FA10BD52FA20BD52FDC2F831203130A
:101FBC0087100D3083120313A200AF30A100B5308F
:101FCC00A000A00BE72FA10BE72FA20BE72FEE2F02
:101FDC000130F90705307902031CF52FF62FCA2FB3
:101FEC000A128A1516240A128A1501308312031359
:041FFC00C500080014
:02400E00FB3F76
:00000001FF
